:100000000C9434000C9451000C9451000C94510049
:100010000C9451000C9451000C9451000C9451001C
:100020000C9451000C9451000C9451000C9451000C
:100030000C9451000C9451000C9451000C945100FC
:100040000C9451000C9451000C9453000C947E00BD
:100050000C9451000C9451000C9451000C945100DC
:100060000C9451000C94510011241FBECFEFD8E026
:10007000DEBFCDBF11E0A0E0B1E0E4EEFDE002C0E4
:1000800005900D92A236B107D9F721E0A2E6B1E0C2
:1000900001C01D92AE3BB207E1F70E9462050C94CD
:1000A000F0060C9400001F920F920FB60F921124CD
:1000B0002F938F939F93EF93FF938091C000909124
:1000C000C6008871E0916401EF5FEF7120916301D8
:1000D000E21739F0E0936401F0E0E959FE4F9083B4
:1000E00001C082E080936201FF91EF919F918F9117
:1000F0002F910F900FBE0F901F9018951F920F9287
:100100000FB60F9211248F939F93EF93FF939091CB
:10011000660180916501981769F0E0916501EF5FD4
:10012000EF71E0936501F0E0E957FE4F8081809325
:10013000C60005C08091C1008F7D8093C100FF91F2
:10014000EF919F918F910F900FBE0F901F90189578
:100150001092660110926501109264011092630181
:1001600097FF04C022E02093C0009F779093C500C2
:100170008093C40088E98093C10086E08093C20028
:1001800008959091640180916301981789F0E0913E
:100190006301EF5FEF71E0936301F0E0E959FE4F17
:1001A000808190916201392F20E0280F311D02C01B
:1001B00020E031E0C9010895909166019F5F9F7131
:1001C000209165019217E1F3E92FF0E0E957FE4F26
:1001D0008083909366018091C10080628093C1000A
:1001E0000895CF93DF93EC0102C00E94DC00899157
:1001F0008111FBCFDF91CF910895CF93DF93CDB7DE
:10020000DEB761970FB6F894DEBF0FBECDBFAB016E
:10021000BE016F5F7F4F0E94BF06CE0101960E9414
:10022000F10061960FB6F894DEBF0FBECDBFDF912F
:10023000CF9108959091B50180FF02C0906101C0F7
:100240009F7E9093B5019091B50181FF02C09062AD
:1002500001C09F7D9093B5019091B50182FF02C0CE
:10026000906401C09F7B9093B5019091B50183FF8D
:1002700002C0906801C09F779093B5016091B5016D
:1002800080E40C94020380E40E94EB02982F829594
:10029000817095FD826096FD846097FD8860089569
:1002A000CF936091B501606F6093B50180E40E94C7
:1002B00002036091B50162606093B50180E40E9421
:1002C00002036091B50164606093B50180E40E940F
:1002D00002030E944301C82FC295C07F6091B501FF
:1002E0006B7F6093B50180E40E9402036091B501C9
:1002F00064606093B50180E40E9402030E944301A0
:10030000C82B6091B5016B7F6093B50180E40E94BA
:1003100002038C2FCF9108956091B5016E7F609399
:10032000B50180E40E9402030C945001CF93C82FC2
:100330006091B5016F706093B50180E40E94020383
:100340006091B5016D7F6093B50180E40E94020366
:100350006091B50164606093B50180E40E9402037E
:100360008C2F82958F700E941A016091B5016B7F6E
:100370006093B50180E40E9402036091B50164605E
:100380006093B50180E40E9402038C2F0E941A0141
:100390006091B5016B7F6093B50180E40E94020318
:1003A0000E948C0187FDFCCFCF910895CF93C82F79
:1003B0006091B5016E7F6093B50180E40E940203F5
:1003C0008C2FCF910C949601CF93C82F6091B501DB
:1003D00061606093B50180E40E9402038C2FCF918D
:1003E0000C949601982F9058983008F487700C94CC
:1003F000E401CF93DF93EC0102C00E94F2018991E6
:100400008111FBCFDF91CF910895823031F083309D
:1004100031F0813029F480E403C080E101C080E53F
:100420006058860F0C94D60181E00C94D60190910F
:10043000B501882311F0986001C0977F9093B501B2
:100440006091B50180E40C9402031092B50184E63A
:1004500090E00E94AE0281E00E9417028FE59AEEC2
:100460000197F1F700C000006091B501687F6093CB
:10047000B50180E40E9402036091B501646060935D
:10048000B50180E40E94020383E00E941A0160919A
:10049000B5016B7F6093B50180E40E9402038FE099
:1004A00090E40197F1F700C000006091B50164602D
:1004B0006093B50180E40E94020383E00E941A0168
:1004C0006091B5016B7F6093B50180E40E940203E7
:1004D0008FE891E00197F1F700C000006091B5014D
:1004E00064606093B50180E40E94020383E00E948F
:1004F0001A016091B5016B7F6093B50180E40E94A1
:1005000002038FE891E00197F1F700C000006091CD
:10051000B50164606093B50180E40E94020382E04B
:100520000E941A016091B5016B7F6093B50180E470
:100530000E9402038FE891E00197F1F700C00000EC
:1005400088E20E94D60188E00E94D6018CE00E94D9
:10055000D60186E00E94D6010C941402BC0180E80A
:100560009EE30E94AB06862F603148F07727CB01CF
:10057000409797FF02C0CB010F9795958795809381
:10058000B800089584EA8093BC008091BC0087FF86
:10059000FCCF089584E98093BC008091BC0084FD69
:1005A000FCCF08958093BB0084E88093BC008091C9
:1005B000BC0087FFFCCF089520E4829FC001112476
:1005C00084689F6F8093BC008091BC0087FFFCCF44
:1005D0008091BB000895CF93DF931F92CDB7DEB714
:1005E00089830E94C20289818F5F0E94D20280E0CB
:1005F0000E94DC0289830E94CA0289810F90DF91E8
:10060000CF910895CF93DF9300D0CDB7DEB76A8343
:1006100089830E94C20289810E94D2026A81862F48
:100620000E94D2020F900F90DF91CF910C94CA02DA
:1006300023B1217041E0242730E08091A7019091FF
:10064000A8012817390709F446C083B181708427AF
:1006500090E09093A8018093A7010197D9F480E0DE
:1006600091E00E94F10082E091E00E94F1008BE2B3
:1006700091E00E94F1008DE00E94DC008AE00E947F
:10068000DC002FEF85EA9EE0215080409040E1F7AA
:1006900000C000008091A7019091A801892BD9F496
:1006A00080E091E00E94F10082E091E00E94F10080
:1006B00087E091E00E94F1008DE00E94DC008AE07A
:1006C0000E94DC002FEF85EA9EE0215080409040A0
:1006D000E1F700C0000008958AE091E00E94F10077
:1006E0008DE00E94DC008AE00C94DC0060E080E099
:1006F0000E9405028FE091E00E94F90160E081E034
:100700000E94050287E191E00E94F90160E083E028
:100710000E9405028EE191E00E94F9016FE083E002
:100720000E94050285E291E00C94F901CF93DF93DA
:1007300089B1992787FD9095809590958827990F85
:10074000881F99272091B3013091B4018217930734
:10075000D1F189B1992787FD909580959095C92F02
:10076000CC1FCC27CC1F20E0D22FD093B401C09354
:10077000B301C130D105D9F480E091E00E94F100CD
:1007800087E291E00E94F1008DE00E94DC008AE0A7
:100790000E94DC00D093B701C093B6018FEF95EAB9
:1007A0002EE0815090402040E1F700C0000068E05A
:1007B00080E00E9405028CE291E00E94F9018AE546
:1007C00091E00E94F9018091B6019091B701DF910B
:1007D000CF91089549B1429546954695437061E0A1
:1007E0004627242F217030E04091B1015091B20191
:1007F00024173507C1F129B1229526952695237036
:100800002627822F817090E09093B2018093B101EE
:100810000197E9F480E091E00E94F1008EE291E01E
:100820000E94F1008DE00E94DC008AE00E94DC0062
:100830002FEF85EA9EE0215080409040E1F700C014
:10084000000082E090E09093B7018093B60168E0E9
:1008500080E00E9405028AE591E00E94F9018AE5A4
:1008600091E00E94F9018091B6019091B70108953D
:1008700049B142954695477061E04627242F217083
:1008800030E04091AF015091B00124173507B9F124
:1008900029B12295269527702627822F817090E016
:1008A0009093B0018093AF010197E9F480E091E06B
:1008B0000E94F10085E391E00E94F1008DE00E942A
:1008C000DC008AE00E94DC002FEF89E698E12150ED
:1008D00080409040E1F700C0000083E090E09093FA
:1008E000B7018093B60168E080E00E9405028AE3C8
:1008F00091E00E94F9018AE591E00E94F90180915E
:10090000B6019091B701089549B142954F7061E0E9
:100910004627242F217030E04091AD015091AE0167
:1009200024173507B1F129B122952F702627822F80
:10093000817090E09093AE018093AD010197E9F44E
:1009400080E091E00E94F1008CE391E00E94F100D0
:100950008DE00E94DC008AE00E94DC0084E090E0F0
:100960009093B7018093B6012FEF85EA9EE0215066
:1009700080409040E1F700C0000068E080E00E9405
:10098000050281E491E00E94F9018AE591E00E946C
:10099000F9018091B6019091B701089549B146954A
:1009A0004695469561E04627242F217030E040911E
:1009B000AB015091AC0124173507B9F129B1269547
:1009C000269526952627822F817090E09093AC0182
:1009D0008093AB010197E9F480E091E00E94F1007F
:1009E00083E491E00E94F1008DE00E94DC008AE047
:1009F0000E94DC0085E090E09093B7018093B601FF
:100A00002FEF85EA9EE0215080409040E1F700C042
:100A1000000068E080E00E94050288E491E00E9406
:100A2000F9018AE591E00E94F9018091B601909167
:100A3000B701089543B1469561E04627242F217000
:100A400030E04091A9015091AA0124173507A9F17E
:100A500023B126952627822F817090E09093AA01DA
:100A60008093A9010197E9F480E091E00E94F100F0
:100A70008AE491E00E94F1008DE00E94DC008AE0AF
:100A80000E94DC0086E090E09093B7018093B6016D
:100A90002FEF85EA9EE0215080409040E1F700C0B2
:100AA000000068E080E00E9405028FE491E00E946F
:100AB000F9018AE591E00E94F9018091B6019091D7
:100AC000B70108953B9A3A9A399A80E190E00E94E2
:100AD000A800789457985F9A56985E9A55985D9AB0
:100AE00054985C9A53985B9A2198299A2098289A4E
:100AF0000E946C030E9425020E94760301301105BA
:100B000019F0439A419842980E94C1008093B8011D
:100B10008435A9F40E94C100813361F46DE083E063
:100B20000E9405028DE091E00E94F9014398419AEC
:100B3000429816C0803309F084C06DE018C0823539
:100B400019F50E94C100813371F46EE083E00E94C8
:100B5000050281E591E00E94F90143984198429A8B
:100B600001E010E06EC0803309F06BC06EE083E0FE
:100B70000E9405028AE591E00E94F901439841989C
:100B8000429800E010E05DC0863409F05AC066E08B
:100B900081E00E94050283E591E00E94F9010E9434
:100BA000C100C82F803339F066E081E00E94050261
:100BB0008C2F0E94F2010E94C100C82F67E081E0E3
:100BC0000E9405028C2F0E94F2010E94C100C82FD2
:100BD00068E081E00E9405028C2F0E94F2010E94D1
:100BE000C100C82F69E081E00E9405028C2F0E949D
:100BF000F2010E94C100C82F6AE081E00E94050254
:100C00008C2F0E94F2010E94C100C82F6BE081E08E
:100C10000E9405028C2F0E94F2010E94C100C82F81
:100C20006CE081E00E9405028C2F0E94F2010E947C
:100C3000C100C82F6DE081E00E9405028C2F0E9448
:100C4000F2010E9418030E9496030E94EA030E9488
:100C500038040E9484040E94CE040E941A05EC010C
:100C60008091B9019091BA018033954709F069C02C
:100C7000209709F462C080E091E00E94F1008CE5C9
:100C800091E00E94F1006AE070E0CE010E94FD0058
:100C90008DE00E94DC008AE00E94DC008FEF95EA84
:100CA0002EE0815090402040E1F700C00000C130AC
:100CB000D10539F468E080E00E9405028CE291E001
:100CC00009C0C230D10569F468E080E00E940502E5
:100CD00083E391E00E94F9018AE591E00E94F90125
:100CE0001EC0C330D10539F468E080E00E940502DF
:100CF0008AE391E01CC0C430D10539F468E080E09B
:100D00000E94050281E491E012C0C530D10539F49A
:100D100068E080E00E94050288E491E008C0269720
:100D200061F468E080E00E9405028FE491E00E9497
:100D3000F9018AE591E00E94F9011092BA0110923E
:100D4000B9018091B9019091BA0101969093BA01CD
:100D50008093B901D3CEAA1BBB1B51E107C0AA1FC8
:100D6000BB1FA617B70710F0A61BB70B881F991F4C
:100D70005A95A9F780959095BC01CD010895FB0186
:100D80009F01E8944230C4F04532B4F44A3029F46B
:100D900097FB1EF4909581959F4F642F77270E94B3
:100DA000AB06805D8A330CF0895D8193CB0100979F
:100DB000A1F716F45DE251931082C9010C94E0068C
:100DC000DC01FC01672F71917723E1F7329704C0B2
:100DD0007C916D9370836291AE17BF07C8F308953D
:040DE000F894FFCFB5
:100DE4003E0050545420002030004C4953540043DA
:100DF40048414E454C3A00465245513A200053541E
:100E0400415455530058004348414E203100434853
:100E1400414E2032004348414E2033004348414E66
:100E24002034004348414E2035004348414E20368B
:100E34000052002020202020202020004348414E42
:020E440020008C
:00000001FF
