:100000000C94E6000C9403010C9403010C9403017E
:100010000C9403010C9403010C9403010C94030150
:100020000C9403010C9403010C9403010C94030140
:100030000C9403010C9403010C9403010C94030130
:100040000C94F00A0C9403010C9405010C943001FB
:100050000C9403010C9403010C9403010C94030110
:100060000C9403010C940301036EDB363D9A9999BD
:10007000993DABAAAA2A3E000000803F084AD73B20
:100080003BCE016E84BCBFFDC12F3D6C74319ABD67
:1000900056833DDA3D00C77F11BED9E4BB4C3E918B
:1000A0006BAAAABE000000803F072C7AA5BA6CC5D7
:1000B00090DA3B9365FC8BBC53F810FD3C56928361
:1000C0004DBD879D3AB63DCBC9BF5BBE73DA0FC944
:1000D0003F00407A10F35A00A0724E18090010A594
:1000E000D4E80000E87648170000E40B5402000052
:1000F000CA9A3B000000E1F50500008096980000D8
:100100000040420F000000A0860100000010270000
:10011000000000E803000000006400000000000A86
:1001200000000000000100000000002C76D888DCF0
:10013000674F0823DFC1DFAE59E1B1B796E5E3E4CD
:1001400053C63AE651997696E8E6C28426EB898C46
:100150009B62ED407C6FFCEFBC9C9F40F2BAA56FA8
:10016000A5F490055A2AF75C936B6CF9676DC11B77
:10017000FCE0E40D47FEF520E6B500D0ED902E033F
:1001800000943577050080841E080000204E0A0088
:100190000000C80C333333330F986E12831141EFD4
:1001A0008D2114893BE65516CFFEE6DB18D1844B32
:1001B000381BF77C1D901DA4BBE424203284725EA2
:1001C000228100C9F124ECA1E53D270011241FBEC6
:1001D000CFEFD8E0DEBFCDBF11E0A0E0B1E0E6EFA9
:1001E000FCE202C005900D92A034B107D9F721E0DE
:1001F000A0E4B1E001C01D92A73BB207E1F70E9465
:10020000F90D0C94E8100C9400001F920F920FB699
:100210000F9211242F938F939F93EF93FF938091CD
:10022000C0009091C6008871E0914201EF5FEF71CC
:1002300020914101E21739F0E0934201F0E0EB5BDD
:10024000FE4F908301C082E080934001FF91EF91C7
:100250009F918F912F910F900FBE0F901F90189527
:100260001F920F920FB60F9211248F939F93EF93CB
:10027000FF939091440180914301981769F0E091B8
:100280004301EF5FEF71E0934301F0E0EB59FE4F64
:1002900080818093C60005C08091C1008F7D8093CE
:1002A000C100FF91EF919F918F910F900FBE0F9022
:1002B0001F90189510924401109243011092420130
:1002C0001092410197FF04C022E02093C0009F7765
:1002D0009093C5008093C40088E98093C10086E0B4
:1002E0008093C20008959091420180914101981736
:1002F00089F0E0914101EF5FEF71E0934101F0E09F
:10030000EB5BFE4F808190914001392F20E0280F58
:10031000311D02C020E031E0C901089590914401EF
:100320009F5F9F71209143019217E1F3E92FF0E065
:10033000EB59FE4F8083909344018091C10080620D
:100340008093C1000895CF93DF93EC0102C00E9417
:100350008E0189918111FBCFDF91CF910895CF93C9
:10036000DF93EC0102C00E948E01FE012196849170
:100370008111F9CFDF91CF910895809142012091B1
:10038000410190E04F96821B91096FE170E00E945D
:100390005116089580914101809342010895AF92D2
:1003A000BF92DF92EF92FF920F931F93CF93DF9351
:1003B00000D0CDB7DEB7182FD62E80ED49835A83F3
:1003C0000E94150D812F0E94A30D85E38A95F1F7F8
:1003D000000081ED0E94150D4981A42E5A81B52E91
:1003E00000E010E0ED2CF12CE1E0EE1AF1080FC076
:1003F0000E151F0519F40E94DC0D02C00E94C30DEA
:10040000F50180830F5F1F4FFFEFAF1ABF0A0D1575
:1004100078F30E94940D8D2D0F900F90DF91CF9166
:100420001F910F91FF90EF90DF90BF90AF900895D4
:1004300061110C94CF0180E00895AB0161E00C9450
:10044000CF01EF92FF920F931F93CF93DF931F92F1
:10045000CDB7DEB7F82E162F042F6623E9F080ED16
:1004600059830E94150D8F2D0E94A30DE02E5981F6
:10047000F52E05C0F70181917F010E94A30D8E2DFD
:10048000801B8117B8F30F90DF91CF911F910F91CF
:10049000FF90EF900C94940D0F90DF91CF911F91EE
:1004A0000F91FF90EF900895CF93DF931F92CDB7F8
:1004B000DEB76983AE014F5F5F4F61E00E942102AA
:1004C0000F90DF91CF9108950F931F93CF93DF93F8
:1004D00000D01F92CDB7DEB7182F062F1982BE01AC
:1004E0006F5F7F4F2B834A830E941D022B814A81BD
:1004F000882309F1602F70E0641B71096F5F7F4FE3
:10050000E1E0F0E002C0EE0FFF1F4A95E2F73197FD
:10051000062E01C0EE0F0A94EAF701C0220F6A9579
:10052000EAF76E2F6095898168232E23622B6983F9
:10053000812F0E9454020F900F900F90DF91CF9166
:100540001F910F910895FF920F931F93CF93DF9305
:1005500000D0CDB7DEB7F62E8901442339F1BE01B4
:100560006F5F7F4F4A830E941D024A818823F9F002
:100570006F2D70E0641B71096F5F7F4FE1E0F0E069
:1005800002C0EE0FFF1F4A95E2F73197062E01C019
:10059000EE0F0A94EAF749814E2350E002C05595C8
:1005A00047956A95E2F7F801408301C080E00F901B
:1005B0000F90DF91CF911F910F91FF900895FF92BF
:1005C0000F931F93CF93DF931F92CDB7DEB7F62E15
:1005D0008A01BE016F5F7F4F0E941D0221E030E063
:1005E00001C0220FFA94EAF799819223F8019083CF
:1005F0000F90DF91CF911F910F91FF9008954111BE
:100600000C94640208950F931F93CF93DF9300D04F
:10061000CDB7DEB7182F062FBE016F5F7F4F4A831D
:100620000E941D0289814A8121E030E0002E01C034
:10063000220F0A94EAF7442319F0682F622B03C0B3
:10064000622F609568236983812F0E9454020F9066
:100650000F90DF91CF911F910F91089540E066E0D8
:100660008BE60C94030341E066E08BE60C940303F5
:100670002DE931E046E066E085E70E94A302909113
:100680009D0181E0943309F080E008950E940F0DF0
:1006900025E32A95F1F700008FEF91EE24E08150D9
:1006A00090402040E1F700C000000E942E038FE33D
:1006B0009CE90197F1F700C0000021E043E062E00F
:1006C0008BE60E94640223E043E062E08AE10E943C
:1006D000640264E089E10E94540223E042E064E0A5
:1006E0008BE10E94640220E042E064E08CE10E9421
:1006F000640285B5856085BDEEE6F0E080818160AD
:10070000808308958F929F92AF92BF92CF92DF9293
:10071000EF92FF920F931F93CF93DF93EC015B0156
:100720006A0149014DE951E06EE08BE30E94180235
:1007300030919D0120919E01932F80E0822B99831F
:10074000888330919F012091A001932F80E0822B1C
:10075000F501918380833091A1012091A201932F13
:1007600080E0822BF601918380833091A501209156
:10077000A601932F80E0822BF40191838083309136
:10078000A7012091A801932F80E0822BF80191838B
:1007900080833091A9012091AA01932F80E0822BC0
:1007A000F70191838083DF91CF911F910F91FF908B
:1007B000EF90DF90CF90BF90AF909F908F90089573
:1007C0002F923F924F925F926F927F928F929F9261
:1007D000AF92BF92CF92DF92EF92FF920F931F934F
:1007E000CF93DF93CDB7DEB72C970FB6F894DEBF6B
:1007F0000FBECDBF3C014B015A0169012801170111
:100800001C861B861A86198618861F821E821D82E8
:100810001C821B821A821982EE24E394F12CEC0EC6
:10082000FD1E8E010D5F1F4F9E012B5F3F4FAE01DE
:10083000495F5F4FBE01675F7F4FCE010B960E94FD
:1008400082036B857C85882777FD8095982F0E9491
:10085000371220E030E040E858E30E943F13F301F4
:10086000608371838283938369857A85882777FD86
:100870008095982F0E94371220E030E040E858E33E
:100880000E943F13F40160837183828393836F819D
:100890007885882777FD8095982F0E94371220E071
:1008A00030E040E858E30E943F13F5016083718314
:1008B000828393836D817E81665D7F4F882777FD7C
:1008C0008095982F0E94371223E333E343E851E4E5
:1008D0000E94CD11F60160837183828393836B81C3
:1008E0007C8169507109882777FD8095982F0E9437
:1008F000371223E333E343E851E40E94CD11F201C0
:10090000608371838283938369817A81635E7F4F81
:10091000882777FD8095982F0E94371223E333E3D1
:1009200043E851E40E94CD11F10160837183828319
:1009300093832C960FB6F894DEBF0FBECDBFDF9128
:10094000CF911F910F91FF90EF90DF90CF90BF90CC
:10095000AF909F908F907F906F905F904F903F905F
:100960002F9008952F923F924F925F926F927F92B5
:100970008F929F92AF92BF92CF92DF92EF92FF92AF
:100980000F931F93CF93DF93CDB7DEB7E5970FB6E5
:10099000F894DEBF0FBECDBF69877D871C01298B10
:1009A0003A8B4B8B5C8BED8AF98E0D8F19A320E06F
:1009B00030E0A901C601B5010E94C91181111BC017
:1009C00020E030E0A9012E966CAD7DAD8EAD9FADDF
:1009D0002E970E94C91181110EC020E030E0A901BC
:1009E00062966CAD7DAD8EAD9FAD62970E94C911D0
:1009F000882309F45EC2A6019501C601B5010E94D3
:100A00003F132B013C012E962CAD3DAD4EAD5FAD9D
:100A10002E97CA01B9010E943F139B01AC01C3018B
:100A2000B2010E94EC102B013C0162962CAD3DAD51
:100A30004EAD5FAD6297CA01B9010E943F139B01A1
:100A4000AC01C301B2010E94EC100E94A6132B015D
:100A50003C019B01AC01C601B5010E94CD116AA306
:100A60007BA38CA39DA3A30192012E966CAD7DADBB
:100A70008EAD9FAD2E970E94CD1169837EA38FA36B
:100A800098A7A301920162966CAD7DAD8EAD9FAD2E
:100A900062970E94CD116D83072F182F99A760913F
:100AA000990170919A0180919B0190919C012091F4
:100AB0009101309192014091930150919401809065
:100AC000000190900101A0900201B09003014090BC
:100AD00095015090960160909701709098010E9446
:100AE0003F136B017C01A3019201C501B4010E9477
:100AF0003F139B01AC01C701B6010E94EB106AA72E
:100B00007BA78CA79DA76091000170910101809146
:100B10000201909103012091990130919A01409135
:100B20009B0150919C018090950190909601A0901E
:100B30009701B0909801409091015090920160907F
:100B40009301709094010E943F136B017C01A301FB
:100B50009201C501B4010E943F139B01AC01C70182
:100B6000B6010E94EC106EA77FA788AB99AB60918D
:100B70000001709101018091020190910301209187
:100B800000013091010140910201509103018090D8
:100B9000910190909201A0909301B09094014090A7
:100BA00091015090920160909301709094010E9485
:100BB0003F1320E030E040E05FE30E94EB106B0168
:100BC0007C01A3019201C501B4010E943F139B0166
:100BD000AC01C701B6010E94EC104B015C01762FFD
:100BE000272F392D4A2D5B2DB981AEA1FFA1E8A594
:100BF0006B2F7A2F8F2F9E2F0E943F136B017C014A
:100C00007EA56FA598A989A9272F362F492F582F80
:100C1000BD81E9A56B2F702F812F9E2F0E943F135E
:100C20009B01AC01C701B6010E94EB106AAB7BAB24
:100C30008CAB9DAB7AA56BA59CA58DA5272F362FD8
:100C4000492F582FBD81E9A56B2F702F812F9E2F23
:100C50000E943F136B017C01282D392D4A2D5B2DFD
:100C6000BAA1ABA1FCA1EDA16B2F7A2F8F2F9E2FE4
:100C70000E943F139B01AC01C701B6010E94EB101B
:100C80002B013C017EA56FA598A989A9272F362F96
:100C9000492F582FBAA1ABA1FCA1EDA16B2F7A2F40
:100CA0008F2F9E2F0E943F136B017C017AA56BA5AD
:100CB0009CA58DA5272F362F492F582FB981AEA17E
:100CC000FFA1E8A56B2F7A2F8F2F9E2F0E943F1335
:100CD0009B01AC01C701B6010E94EB107B018C01A6
:100CE00080908D0190908E01A0908F01B090900126
:100CF0002DEC3CEC4CE45EE3BAA9ABA9FCA9EDA950
:100D00006B2F7A2F8F2F9E2F0E943F132AE83BE4F0
:100D100046E85CE30E943F139B01AC01C501B401AE
:100D20000E94EC10AB01BC0140938D0150938E01E9
:100D300060938F01709390018090890190908A0157
:100D4000A0908B01B0908C012DEC3CEC4CE45EE368
:100D5000642D752D862D972D0E943F132AE83BE4C4
:100D600046E85CE30E943F139B01AC01C501B4015E
:100D70000E94EC10AB01BC014093890150938A01A1
:100D800060938B0170938C01809085019090860117
:100D9000A0908701B09088012DEC3CEC4CE45EE320
:100DA0006E2D7F2D802F912F0E943F132AE83BE468
:100DB00046E85CE30E943F139B01AC01C501B4010E
:100DC0000E94EC10AB01BC01409385015093860159
:100DD000609387017093880120918D0130918E017D
:100DE00040918F0150919001B985AD856B2F7A2F7D
:100DF000822D932D0E94EC101B0189839D832091ED
:100E0000890130918A0140918B0150918C01B989FF
:100E1000AA89FB89EC896B2F7A2F8F2F9E2F0E9436
:100E2000EC10698B7A8B4C01209185013091860101
:100E30004091870150918801BD89A98DFD8DE9A15F
:100E40006B2F7A2F8F2F9E2F0E94EC105B016C016D
:100E50007AA96BA99CA98DA9272F362F492F582F26
:100E6000F981ED81622D732D8F2F9E2F0E94EC1042
:100E700069877D871C01242D352D462D572DB98975
:100E8000AA896B2F7A2F882D992D0E94EC10698BDF
:100E90007A8B8B8B9C8B2E2D3F2D402F512F6A2DC3
:100EA0007B2D8C2D9D2D0E94EC106D8B798F8D8F5D
:100EB00099A32AE83BE446E05CE3B985AD856B2F56
:100EC0007A2F822D932D0E943F1369837D8389871A
:100ED0009D872AE83BE446E05CE3B989AA89FB895F
:100EE000EC896B2F7A2F8F2F9E2F0E943F13698BD7
:100EF0007A8B8B8B9C8B2AE83BE446E05CE3BD89D4
:100F0000A98DFD8DE9A16B2F7A2F8F2F9E2F0E9427
:100F10003F13162F072F382E292E80910001909114
:100F20000101A0910201B09103018D8B9E8BAF8BCB
:100F3000B88F8091990190919A01A0919B01B091F5
:100F40009C01898F9A8FAB8FBC8F80919501909176
:100F50009601A0919701B09198018D8F9E8FAF8FD0
:100F6000B8A3C0900001D0900101E0900201F09080
:100F70000301409091015090920160909301709014
:100F80009401698D7A8D8B8D9C8D9058B981AD813E
:100F9000F985ED852B2F3A2F4F2F5E2F0E943F139F
:100FA0004B015C0179896A899B898C89272F362FAF
:100FB000492F582F6D8D7E8D8F8D98A10E943F13E4
:100FC0009B01AC01C501B4010E94EB104B015C0117
:100FD000B801C101272F362F492F582FC301B20165
:100FE0000E943F139B01AC01C501B4010E94EB10AC
:100FF0009B01AC01C701B6010E94EC10AB01BC0122
:10100000409300015093010160930201709303012A
:10101000C0909901D0909A01E0909B01F0909C01C2
:1010200040909101509092016090930170909401D2
:1010300079816D8199858D85272F362F492F582FDE
:101040006D897E898F89988D0E943F134B015C01C9
:10105000B801C101272F362F492F582F6D8D7E8D56
:101060008F8D98A10E943F139B01AC01C501B40173
:101070000E94EC104B015C0179896A899B898C89FB
:10108000272F362F492F582FC301B2010E943F133B
:101090009B01AC01C501B4010E94EB109B01AC01A6
:1010A000C701B6010E94EC10AB01BC01409399014D
:1010B00050939A0160939B0170939C01C09095019D
:1010C000D0909601E0909701F090980140909101A6
:1010D00050909201609093017090940179896A898F
:1010E0009B898C89272F362F492F582F6D897E8910
:1010F0008F89988D0E943F134B015C01B801C1019B
:10110000272F362F492F582F698D7A8D8B8D9C8DE7
:101110000E943F139B01AC01C501B4010E94EB107A
:101120004B015C0179816D8199858D85272F362F43
:10113000492F582FC301B2010E943F139B01AC01FC
:10114000C501B4010E94EC109B01AC01C701B601BE
:101150000E94EC10AB01BC014093950150939601A5
:101160006093970170939801C0909101D090920183
:10117000E0909301F0909401B801C101272F362F20
:10118000492F582F6D897E898F89988D0E943F1332
:101190004B015C0179896A899B898C89272F362FBD
:1011A000492F582F698D7A8D8B8D9C8D0E943F130E
:1011B0009B01AC01C501B4010E94EC104B015C0124
:1011C00079816D8199858D85272F362F492F582F4D
:1011D0006D8D7E8D8F8D98A10E943F139B01AC0178
:1011E000C501B4010E94EB109B01AC01C701B6011F
:1011F0000E94EC10AB01BC0140939101509392010D
:1012000060939301709394016091000170910101CA
:101210008091020190910301209100013091010120
:1012200040910201509103018090990190909A01A0
:10123000A0909B01B0909C014090990150909A0120
:1012400060909B0170909C01E0909501F090960158
:101250000091970110919801E982FA820B831C8317
:10126000E0909501F09096010091970110919801FE
:10127000ED82FE820F831887E0909101F090920139
:101280000091930110919401E986FA860B871C87DF
:10129000E0909101F09092010091930110919401DE
:1012A000ED86FE860F87188B0E943F136B017C0131
:1012B000A3019201C501B4010E943F139B01AC013F
:1012C000C701B6010E94EC106B017C012D813E81AB
:1012D0004F81588569817A818B819C810E943F135F
:1012E0009B01AC01C701B6010E94EC106B017C01AF
:1012F0002D853E854F85588969857A858B859C85A6
:101300000E943F139B01AC01C701B6010E94EC1083
:101310000E94A6136B017C01609100017091010194
:101320008091020190910301A70196010E94CD11C5
:10133000AB01BC0140930001509301016093020195
:10134000709303016091990170919A0180919B01C2
:1013500090919C01A70196010E94CD11AB01BC01A7
:101360004093990150939A0160939B0170939C0163
:1013700060919501709196018091970190919801EB
:10138000A70196010E94CD11AB01BC0140939501CC
:101390005093960160939701709398016091910129
:1013A000709192018091930190919401A70196010F
:1013B0000E94CD11AB01BC01409391015093920169
:1013C0006093930170939401E5960FB6F894DEBF95
:1013D0000FBECDBFDF91CF911F910F91FF90EF9086
:1013E000DF90CF90BF90AF909F908F907F906F9045
:1013F0005F904F903F902F9008954F925F926F9221
:101400007F928F929F92AF92BF92CF92DF92EF9294
:10141000FF920F931F93CF93DF93CDB7DEB728973B
:101420000FB6F894DEBF0FBECDBF4DE951E060E0CE
:101430008AE30E94DF0280919D01811105C085E34E
:101440008A95F1F70000F1CF4DE951E06EE08BE3B2
:101450000E94180290919D0180919E0110919F0120
:101460000091A0018090A1019090A2016090A5013F
:101470007090A6014090A7015090A801E090A901AA
:10148000F090AA01792F60E0682B882777FD80957E
:10149000982F0E94371220E030E040E858E30E9485
:1014A0003F135B016C017E2D60E06F29635E7F4F0F
:1014B000882777FD8095982F0E94371223E333E326
:1014C00043E851E40E94CD1124E33AEF4EE85CE397
:1014D0000E943F1369837A838B839C83742D60E021
:1014E000652969507109882777FD8095982F0E949A
:1014F000371223E333E343E851E40E94CD1124E3A0
:101500003AEF4EE85CE30E943F136D837E838F8346
:101510009887762D60E06729665D7F4F882777FD85
:101520008095982F0E94371223E333E343E851E478
:101530000E94CD1124E33AEF4EE85CE30E943F1392
:101540002B013C01782D60E06929882777FD809583
:10155000982F0E94371220E030E040E858E30E94C4
:101560003F139F938F937F936F93712F60E0602B56
:10157000882777FD8095982F0E94371220E030E071
:1015800040E858E30E943F139F938F937F936F939C
:10159000E980FA800B811C812D813E814F81588525
:1015A000C301B2010E94B2040FB6F894DEBF0FBEB1
:1015B000CDBF28960FB6F894DEBF0FBECDBFDF912A
:1015C000CF911F910F91FF90EF90DF90CF90BF9040
:1015D000AF909F908F907F906F905F904F90089505
:1015E0001F920F920FB60F9211242F933F934F9398
:1015F0005F936F937F938F939F93AF93BF93EF937B
:10160000FF930E94FD09FF91EF91BF91AF919F91D0
:101610008F917F916F915F914F913F912F910F909B
:101620000FBE0F901F901895CF92DF92EF92FF920E
:10163000C0900001D0900101E0900201F090030100
:10164000FC01C082D182E282F38280919901909163
:101650009A01A0919B01B0919C01FB018083918331
:10166000A283B3838091950190919601A0919701F7
:10167000B0919801FA0180839183A283B383809112
:10168000910190919201A0919301B0919401F9017F
:1016900080839183A283B383FF90EF90DF90CF90FC
:1016A00008952F923F924F925F926F927F928F9206
:1016B0009F92AF92BF92CF92DF92EF92FF920F93E1
:1016C0001F93CF93DF93CDB7DEB762970FB6F89431
:1016D000DEBF0FBECDBF1C018B015A8B498B6091C1
:1016E00000017091010180910201909103014090ED
:1016F0000001509001016090020170900301C090C0
:101700009901D0909A01E0909B01F0909C0120916A
:10171000990130919A0140919B0150919C012D8338
:101720003E834F8358872091990130919A014091CF
:101730009B0150919C0129833A834B835C832091C8
:101740009501309196014091970150919801298718
:101750003A874B875C878090000190900101A090B0
:101760000201B090030120919101309192014091CA
:101770009301509194012D873E874F87588B9B0191
:10178000AC010E94EC10A30192010E943F132B01B7
:101790003C01A7019601C701B6010E94EC102D8102
:1017A0003E814F8158850E943F139B01AC01C301CC
:1017B000B2010E94EC1020E030E040E85FE30E94BC
:1017C000EB106B017C0129813A814B815C81CA015C
:1017D000B9010E94EC1029853A854B855C850E94F1
:1017E0003F132B013C01A5019401C501B4010E94E6
:1017F000EC102D853E854F8558890E943F139B0133
:10180000AC01C301B2010E94EB10A70196010E9436
:101810007611E989FA896083718382839383609169
:10182000990170919A0180919B0190919C01409047
:101830009101509092016090930170909401C0903A
:101840000001D0900101E0900201F090030180902E
:10185000950190909601A0909701B09098019B01FE
:10186000AC010E94EC10A30192010E943F132B01D6
:101870003C01A7019601C701B6010E94EC10A50129
:1018800094010E943F139B01AC01C301B2010E946D
:10189000EC100E945011DC01CB01B058F80180839C
:1018A0009183A283B38360910001709101018091C3
:1018B00002019091030120910001309101014091BA
:1018C00002015091030129833A834B835C8340904A
:1018D0009101509092016090930170909401209139
:1018E00091013091920140919301509194012D8387
:1018F0003E834F8358878090950190909601A090E9
:101900009701B090980120919101309192014091FE
:1019100093015091940129873A874B875C87C09047
:101920000001D0900101E0900201F09003012091AC
:10193000990130919A0140919B0150919C012D8712
:101940003E874F87588B9B01AC010E94EC10298188
:101950003A814B815C810E943F1369837A838B8338
:101960009C83A3019201C301B2010E94EC102D815E
:101970003E814F8158850E943F139B01AC016981D4
:101980007A818B819C810E94EC1020E030E040E85D
:101990005FE30E94EB102B013C01A5019401C501FE
:1019A000B4010E94EC1029853A854B855C850E9424
:1019B0003F134B015C01A7019601C701B6010E94CC
:1019C000EC102D853E854F8558890E943F139B0161
:1019D000AC01C501B4010E94EB10A30192010E9469
:1019E0007611F101608371838283938362960FB6CF
:1019F000F894DEBF0FBECDBFDF91CF911F910F9145
:101A0000FF90EF90DF90CF90BF90AF909F908F901E
:101A10007F906F905F904F903F902F90089510921D
:101A2000B90088E48093B800089594EA9093BC00CC
:101A30004FEF50E060E070E09091BC0097FF05C070
:101A4000452B462B472B49F406C0415051096109EB
:101A5000710990F702C081E008959091B900987FD4
:101A6000983011F09031B9F78093BB0084E88093EF
:101A7000BC008FEF90E0A0E0B0E02091BC0027FF19
:101A800005C0892B8A2B8B2B29F4E5CF0197A1095F
:101A9000B10998F78091B900887F883111F08034BE
:101AA000D1F680E0089544EA54E864E94093BC002C
:101AB00020E030E09091BC0097FD06C02F5F3F4FC3
:101AC000211591E03907B1F79091B900987F9830CE
:101AD00011F0903159F78093BB005093BC0020E087
:101AE00030E09091BC0097FD06C02F5F3F4F21155D
:101AF00091E03907B1F79091B900987F903211F0D9
:101B0000983579F46093BC0020E030E09091BC00FF
:101B100094FFCCCF2F5F3F4F211591E03907B1F7EC
:101B2000C5CF08950C94150D84E98093BC0080E026
:101B300090E02091BC0024FF05C00196811521E0B2
:101B40009207B9F708958093BB0084E88093BC00A6
:101B50008FEF90E0A0E0B0E02091BC0027FF05C02F
:101B6000892B8A2B8B2B29F40CC00197A109B10971
:101B700098F79091B900987F81E0983219F480E04D
:101B8000089581E0089584EC8093BC008FEF90E08D
:101B9000A0E0B0E02091BC0027FF05C0892B8A2B74
:101BA0008B2B29F407C00197A109B10998F78091FF
:101BB000BB00089580E0089584E88093BC008FEF17
:101BC00090E0A0E0B0E02091BC0027FF05C0892B89
:101BD0008A2B8B2B29F407C00197A109B10998F72B
:101BE0008091BB00089580E00895F8940C94000063
:101BF0000895CF93DF93CDB7DEB7A8970FB6F894CB
:101C0000DEBF0FBECDBF539A549A209A559A569A6A
:101C1000579A3898409A3B98439A3A98429A3998FA
:101C2000419A80E090E0A0E8BFE38BA39CA3ADA322
:101C3000BEA31F8E18A219A21AA21B8E1C8E1D8E67
:101C40001E8E1F8A188E198E1A8E1B8A1C8A1D8A58
:101C50001E8A1F86188A198A1A8A1B861C861D8668
:101C60001E8680E190E00E945A0178940E9446030B
:101C70002FEF80E792E0215080409040E1F700C0D4
:101C800000005B985C9828985D985E985F98812C1E
:101C9000912CA12CB12CC12CD12CE12CF12C332472
:101CA00033940E9473018093AB01873409F070C1B3
:101CB0002FEF81EE94E0215080409040E1F700C08A
:101CC00000000E9473018093AC019091AB019734A6
:101CD00009F05EC1803209F05BC10E9473018093FC
:101CE000AD019091AB01973441F49091AC019032E9
:101CF00021F48B3411F40E94F50D8091AB018734EF
:101D000009F046C18091AC01803209F041C1809157
:101D1000AD018C3409F03CC10E9473018093AE0187
:101D20009091AB01973409F096C09091AC0190323C
:101D300009F091C09091AD019C3409F08CC08133C1
:101D400009F089C00E9473018093AF019091AB01AB
:101D5000973409F080C09091AC01903209F07BC0BB
:101D60009091AD019C3409F076C09091AE01913311
:101D700009F071C0803209F06EC00E947301809337
:101D8000B0019091AB019734A9F49091AC019032DD
:101D900089F49091AD019C3469F49091AE01913336
:101DA00049F49091AF01903229F4823419F45C988F
:101DB00028985B9A8091AB018734B9F48091AC018B
:101DC000803299F48091AD018C3479F48091AE0128
:101DD000813359F48091AF01803239F48091B001A0
:101DE000823519F45C98289A5B988091AB0187340E
:101DF000B9F48091AC01803299F48091AD018C34BA
:101E000079F48091AE01813359F48091AF01803231
:101E100039F48091B001873419F45C9A28985B9862
:101E20008091AB018734B9F48091AC01803299F490
:101E30008091AD018C3479F48091AE01813359F4F5
:101E40008091AF01803239F48091B001803319F470
:101E50005C9828985B988091AB01873409F098C012
:101E60008091AC01803209F093C08091AD018C3437
:101E700009F08EC08091AE01823309F089C00E94C2
:101E800073018093AF019091AB01973409F080C04A
:101E90009091AC01903209F07BC09091AD019C34DF
:101EA00009F076C09091AE01923309F071C0803292
:101EB00009F06EC00E9473018093B0019091AB0154
:101EC0009734A9F49091AC01903289F49091AD01CE
:101ED0009C3469F49091AE01923349F49091AF0132
:101EE000903229F4823419F45E985F985D9A80915B
:101EF000AB018734B9F48091AC01803299F48091C0
:101F0000AD018C3479F48091AE01823359F4809123
:101F1000AF01803239F48091B001823519F45E98B6
:101F20005F9A5D988091AB018734B9F48091AC01E0
:101F3000803299F48091AD018C3479F48091AE01B6
:101F4000823359F48091AF01803239F48091B0012D
:101F5000873419F45E9A5F985D988091AB0187345D
:101F6000B9F48091AC01803299F48091AD018C3448
:101F700079F48091AE01823359F48091AF018032BF
:101F800039F48091B001803319F45E985F985D98C0
:101F90009E01295E3F4FAE01455E5F4FBE01615E0F
:101FA0007F4FCE0183960E94140BAE01455F5F4FB9
:101FB000BE01615F7F4FCE0143960E94510B8FE3BC
:101FC0009CE90197F1F700C0000084E091E00E94D5
:101FD000A30120E030E040E251E46B897C898D89E7
:101FE0009E890E943F138E010F5F1F4F22E042E047
:101FF0000E94C710C8010E94A30180E20E948E01C6
:1020000020E030E040E251E46F85788989899A893F
:102010000E943F138E010F5F1F4F22E042E00E949B
:10202000C710C8010E94A30180E20E948E0120E037
:1020300030E040E251E46B857C858D859E850E9471
:102040003F138E010F5F1F4F22E042E00E94C71036
:10205000C8010E94A30180E20E948E018CE391E0FE
:102060000E94A3019FEF21EE84E091502040804028
:10207000E1F700C0000086B1869586958695832598
:1020800081708FA318A68FA198A58C159D05C1F00E
:1020900086B1869586958695832580FBCC24C0F8ED
:1020A000D12C80FF6EC089E091E00E94A3019FEFD8
:1020B00020E782E0915020408040E1F700C000001E
:1020C00086B186958695832580FB442440F8512C63
:1020D0004A145B04B9F086B186958695832580FB0A
:1020E000AA24A0F8B12C80FF04C082E191E00E94F4
:1020F000A3019FEF21EE84E0915020408040E1F762
:1021000000C0000086B18695832580FB662460F8B8
:10211000712C68147904B1F086B18695832580FB13
:10212000882480F8912C80FF04C08BE191E00E940C
:10213000A3019FEF21EE84E0915020408040E1F721
:1021400000C0000086B18170832590E08E159F0548
:1021500009F4A7CD86B181708325E82EF12C91E09A
:10216000E916F10489F484E291E00E94A3012FEFC3
:1021700081EE94E0215080409040E1F700C00000E3
:1021800090CD8DE291E091CF86E391E0EECFEF929A
:102190000F931F93CF93C02F47FF02C034E101C0BC
:1021A00034E0E42FFF27E7FDF095F7FF03C0F1953A
:1021B000E195F109E32E022F2E2F4C2F512F0E9473
:1021C000E7138C2F912FCF911F910F91EF900895CE
:1021D000F8940C9479165058BB27AA270ED00EC23B
:1021E000FFD130F004D220F031F49F3F11F41EF4FF
:1021F000BEC10EF4E095E7FBB4C1E92F10D280F325
:10220000BA17620773078407950718F071F49EF5F3
:1022100028C20EF4E0950B2EBA2FA02D0B01B901A8
:1022200090010C01CA01A0011124FF27591B99F04C
:10223000593F50F4503E68F11A16F040A22F232F58
:10224000342F4427585FF3CF469537952795A795A8
:10225000F0405395C9F77EF41F16BA0B620B730B4F
:10226000840BBAF09150A1F0FF0FBB1F661F771FC0
:10227000881FC2F70EC0BA0F621F731F841F48F475
:10228000879577956795B795F7959E3F08F0B3CFFB
:102290009395880F08F09927EE0F979587950895E5
:1022A0009F939F77EEE389379E0720F4E8E6F0E0FE
:1022B00086D109C017D19058A2EA2AED3FE049EC37
:1022C0005FE39BDF9BD10F9007FC9058089588D166
:1022D00058F080E891E009F49EEF89D128F040E8B9
:1022E00051E059F45EEF09C042C1BBC1E92FE0786B
:1022F00096D168F3092E052AC1F326173707480738
:10230000590738F00E2E07F8E02569F0E025E06463
:102310000AC0EF6307F8009407FADB01B9019D01D9
:10232000DC01CA01AD01EF9347D068D10AD05F91BB
:10233000552331F02BED3FE049E450FD49EC4CCF03
:102340000895DF93DD27B92FBF7740E85FE31616C6
:10235000170648075B0710F4D92F8AD19F938F93F4
:102360007F936F9331D2ECE7F0E004D147D12F9106
:102370003F914F915F918FD1DD2349F09058A2EAB0
:102380002AED3FE049EC5FE3D0785D2736DFDF914F
:1023900035C1C3D008F481E008950CD02FC127D1F6
:1023A00040F01ED130F021F45F3F19F0DAC0511136
:1023B00059C1DDC034D198F39923C9F35523B1F342
:1023C000951B550BBB27AA2762177307840738F0A4
:1023D0009F5F5F4F220F331F441FAA1FA9F333D003
:1023E0000E2E3AF0E0E830D091505040E695001CB7
:1023F000CAF729D0FE2F27D0660F771F881FBB1F73
:10240000261737074807AB07B0E809F0BB0B802D4C
:10241000BF01FF2793585F4F2AF09E3F510568F098
:10242000A0C020C15F3FECF3983EDCF38695779522
:102430006795B795F7959F5FC9F7880F911D96959A
:10244000879597F90895E1E0660F771F881FBB1FF6
:10245000621773078407BA0720F0621B730B840BA3
:10246000BA0BEE1F88F7E0950895E89409C097FB32
:102470003EF490958095709561957F4F8F4F9F4F5B
:102480009923A9F0F92F96E9BB279395F69587959F
:1024900077956795B795F111F8CFFAF4BB0F11F462
:1024A00060FF1BC06F5F7F4F8F4F9F4F16C0882309
:1024B00011F096E911C0772321F09EE8872F762F3F
:1024C00005C0662371F096E8862F70E060E02AF080
:1024D0009A95660F771F881FDAF7880F969587956C
:1024E00097F90895DF93CF931F930F938B01EC011E
:1024F000E9EAF0E03FD082D09801AE018B01EC0117
:1025000060E070E080E89FE366DE20D19801AE01D4
:102510000F911F91CF91DF91BEC0990F0008550F09
:10252000AA0BE0E8FEEF16161706E807F907C0F059
:1025300012161306E407F50798F0621B730B840B61
:10254000950B39F40A2661F0232B242B252B21F43B
:1025500008950A2609F4A140A6958FEF811D811DDB
:10256000089597F99F6780E870E060E008959FEF15
:1025700080EC0895DF93CF931F930F93FF92EF9218
:10258000DF927B018C01689405C0DA2EEF0183D0C5
:10259000FE01E894A5912591359145915591AEF3B1
:1025A000EF012BDEFE019701A801DA9479F7DF90A5
:1025B000EF90FF900F911F91CF91DF9108959F931E
:1025C0008F937F936F93FF93EF939B01AC0157D051
:1025D000EF91FF91CFDF2F913F914F915F914FC0CE
:1025E00000240A94161617061806090608950024F2
:1025F0000A9412161306140605060895092E03946C
:10260000000C11F4882352F0BB0F40F4BF2B11F4DF
:1026100060FF04C06F5F7F4F8F4F9F4F089557FD3E
:102620009058440F551F59F05F3F71F04795880F40
:1026300097FB991F61F09F3F79F0879508951216D7
:1026400013061406551FF2CF4695F1DF08C0161683
:1026500017061806991FF1CF869571056105089434
:102660000895E894BB2766277727CB0197F908954B
:102670009B01AC0160E070E080E89FE38ECE0BD060
:10268000BDCFAEDF28F0B3DF18F0952309F069CF96
:102690006ECF1124E7CFC3DFA0F3959FD1F3950F41
:1026A00050E0551F629FF001729FBB27F00DB11DD6
:1026B000639FAA27F00DB11DAA1F649F6627B00D66
:1026C000A11D661F829F2227B00DA11D621F739F4F
:1026D000B00DA11D621F839FA00D611D221F749F5D
:1026E0003327A00D611D231F849F600D211D822FA4
:1026F000762F6A2F11249F5750408AF0E1F08823EB
:102700004AF0EE0FFF1FBB1F661F771F881F9150F7
:102710005040A9F79E3F510570F023CFA3CF5F3FF4
:10272000ECF3983EDCF3869577956795B795F7952A
:10273000E7959F5FC1F7FE2B880F911D96958795B2
:1027400097F9089511F40EF412CF96C270DFD0F30A
:102750009923D9F3CEF39F57550B87FF9BD20024C3
:10276000A0E640EA900180585695979528F4805C41
:10277000660F771F881F20F026173707480730F4A9
:10278000621B730B840B202931294A2BA6951794C1
:102790000794202531254A2758F7660F771F881F91
:1027A00020F026173707480730F4620B730B840BB1
:1027B000200D311D411DA09581F7B901842F91583D
:1027C000880F9695879508959B01AC0158CF6F921D
:1027D0007F929F92AF92BF92CF92DF92EF92FF9241
:1027E0000F931F93CF93DF93CDB7DEB729970FB623
:1027F000F894DEBF0FBECDBF6A01B22E102F0C338E
:1028000018F4F02EF39402C05CE3F52E0F2D27E0B0
:10281000AE014F5F5F4F0E9464157981272F2970A9
:10282000213031F0E1FC06C0E0FE06C060E205C0E8
:102830006DE203C06BE201C060E073FF3DC0662340
:1028400011F084E001C083E08B1510F4B81A01C0C8
:10285000B12CE4FC0BC08B2DF60190E202C09193E9
:1028600081508111FCCFCB0CD11CB12C662319F007
:10287000D6016D936D01E2FE0AC08EE4F6018083FD
:1028800091E491838283F3E0CF0ED11C0CC08EE6DD
:10289000D6018C9391E611969C93119712968C9386
:1028A000B3E0CB0ED11C8B2DF60190E202C09193C8
:1028B00081508111FCCF40C072FF45C0662311F0EA
:1028C00084E001C083E08B1510F4B81A01C0B12C6C
:1028D000E4FC0BC08B2DF60190E202C09193815075
:1028E0008111FCCFCB0CD11CB12C662319F0F60161
:1028F00061936F01E2FE0EC089E4D6018C938EE4F1
:1029000011968C93119786E412968C93B3E0CB0EBC
:10291000D11C0AC089E6F60180838EE6818386E6B3
:102920008283F3E0CF0ED11C8B2DF60190E202C022
:10293000919381508111FCCFF601EB0DF11D1082B6
:102940002EEF3FEFACC0A1E0611101C0A0E04A2F23
:1029500050E01816190624F49C012F5F3F4F02C067
:1029600021E030E0240F351F112329F0412F50E0E2
:102970004F5F5F4F02C040E050E0420F531F2B2DCE
:1029800030E04217530714F4B41A01C0B12C3E2DA5
:102990003071E4FC0DC0E3FC0BC02B2DF60140E2CE
:1029A00002C0419321502111FCCFCB0CD11CB12C82
:1029B000AA2319F0D6016D936D0131110BC02B2D97
:1029C000F60130E302C0319321502111FCCFCB0C32
:1029D000D11CB12CF80E0A8140E1A42EA72274FF6D
:1029E00003C0013309F4FA941F142CF42F2D29305D
:1029F00018F028E001C021E0AC0197FF02C040E0E0
:102A000050E060E070E03EE2932EFC01E21BF10931
:102A10009F01DC01A41BB50BFE013196EA0FFB1FE1
:102A2000A12FB0E0662477246A1A7B0A4F3F1FEF7C
:102A3000510719F4D6019D926D018417950754F042
:102A4000241735073CF47F01E60EF71ED7011196D7
:102A50001C9101C010E3415051096F5F7F4F461533
:102A6000570524F0D6011D936D01E0CF4817590793
:102A700039F4063320F4053319F4A11001C011E331
:102A8000F60111938B2DDF0190E202C09D938150DE
:102A90008111FCCFEB0DF11D108220E030E0C90167
:102AA00029960FB6F894DEBF0FBECDBFDF91CF9150
:102AB0001F910F91FF90EF90DF90CF90BF90AF905C
:102AC0009F907F906F900895283008F027E033277B
:102AD000DA01990F311D87FD91600096610571053E
:102AE00039F432602E5F3D9330E32A95E1F7089583
:102AF0009F3F30F080387105610509F03C5F3C5F15
:102B00003D93913008F08068911DDF93CF931F9320
:102B10000F93FF92EF92192F987F9695E92F969534
:102B20009695E90FFF27E55DFE4F99273327EE24A1
:102B3000FF24A701E70105900894079428F4360FB5
:102B4000E71EF81E491F511D660F771F881F991F2A
:102B50000694A1F70590079428F4E70EF81E491F84
:102B6000561FC11D770F881F991F661F0694A1F776
:102B70000590079428F4F80E491F561FC71FD11D52
:102B8000880F991F661F771F0694A1F70590079479
:102B900020F4490F561FC71FD81F990F661F771FB4
:102BA000881F0694A9F784911095177041F0D69567
:102BB000C79557954795F794E7941A95C1F7E1EDB6
:102BC000F0E0689415901591359165919591059077
:102BD0007FE27395E118F10A430B560BC90BD0093C
:102BE000C0F7E10CF11E431F561FC91FD01D7EF414
:102BF000703311F48A95E6CFE894015030F0080F55
:102C00000AF40027021708F4202F2395022F7A33A5
:102C100028F079E37D932A95E9F710C07D932A95F2
:102C200089F6069497956795379517951794E11847
:102C3000F10A430B560BC90BD00998F023957E91EE
:102C400073957A3308F070E37C932013B8F77E9184
:102C500070617D9330F0839571E37D9370E32A95E5
:102C6000E1F71124EF90FF900F911F91CF91DF9129
:102C7000992787FD909508959F3F31F0915020F45A
:102C8000879577956795B795880F911D9695879548
:102C900097F9089591505040660F771F881FD2F71B
:102CA000089597FB072E16F4009407D077FD09D0FE
:102CB0000E94651607FC05D03EF4909581959F4FC4
:102CC0000895709561957F4F0895AA1BBB1B51E134
:102CD00007C0AA1FBB1FA617B70710F0A61BB70B8C
:102CE000881F991F5A95A9F780959095BC01CD0131
:062CF0000895F894FFCFE7
:102CF6000000803F47204920004720503320310DF7
:102D06000A004720503220300D0A0047205032205A
:102D1600310D0A004720503120310D0A004720505E
:102D26003320300D0A004720503120300D0A0000B4
:00000001FF
